:100000000C9434000C943E000C943E000C943E0082
:100010000C943E000C943E000C943E000C943E0068
:100020000C943E000C943E000C943E000C943E0058
:100030000C943E000C943E000C943E000C943E0048
:100040000C943E000C943E000C943E000C943E0038
:100050000C943E000C943E000C943E000C94400026
:100060000C943E000C943E0011241FBECFEFD8E04C
:10007000DEBFCDBF0E944B000C9464000C940000C6
:100080001F920F920FB60F921124309A0F900FBE4D
:100090000F901F90189556985798389A80917B002A
:1000A0008F7B80937B0080B78F7B80BF80B78D7FF5
:1000B00080BF80B78E7F80BF80B7886080BF80B7E9
:0C00C0008F7780BF7894FFCFF894FFCFBB
:00000001FF
