:100000000C9434000C9446000C9446000C9446006A
:100010000C9446000C9446000C9446000C94460048
:100020000C9446000C9446000C9446000C94460038
:100030000C9446000C9446000C9446000C94460028
:100040000C9446000C9446000C9446000C94460018
:100050000C9446000C9446000C9446000C94460008
:100060000C9446000C94460011241FBECFEFD8E03C
:10007000DEBFCDBF21E0A0E0B1E001C01D92A13004
:10008000B207E1F70E9413010C9434010C940000B4
:1000900080E28093B800E9EBF0E080818E7F80837E
:1000A00080818D7F808308958091B900887F089535
:1000B0008091BC0084608093BC008091BC00806211
:1000C0008093BC008091BC0080688093BC008091CC
:1000D000BC0087FFFCCF8091B900887F809300012E
:1000E00080E00895ECEBF0E080818F7D808380815B
:1000F0008061808380818068808380818F7E80831F
:1001000080818B7F808380E00895880F682B6093C7
:10011000BB008091BC0080688093BC008091BC00D3
:1001200087FFFCCF8091B900887F8093000180E039
:1001300008958093BB008091BC0080688093BC00D0
:100140008091BC0087FFFCCF8091B900887F8093AD
:100150000001883221F0803321F082E0089580E0B0
:10016000089581E00895CF93DF93EC01899188236E
:1001700031F00E949900809300018823B9F3DF9148
:10018000CF9108958091BC0080688093BC0080E08E
:100190009091BC0097FD03C08091BB00F9CF909176
:1001A000B900987F90930001983509F081E0089597
:1001B000CF92DF92EF92FF920F931F93CF93DF9333
:1001C000C62FD0E0FC01EC0FFD1F10828C01E12C4A
:1001D000F12C6E0181E0C81AD108EC16FD06D1F0B1
:1001E0008091BC0080648093BC00CE14DF0429F4AD
:1001F0008091BC008F7B8093BC000E94C2008093E2
:1002000000018F3F39F0F80181938F01FFEFEF1A62
:10021000FF0AE3CFDF91CF911F910F91FF90EF90F5
:10022000DF90CF900895CF93DF93CDB7DEB72F97B0
:100230000FB6F894DEBF0FBECDBF0E94480087B155
:10024000876087B988B1876088B90E94580061E0EB
:1002500085E50E9485006EE1CE0101960E94D800DE
:0C0260000E947200329AFFCFF894FFCF8A
:00000001FF
