:100000000C9434000C9451000C9451000C94510049
:100010000C9451000C9451000C9451000C9451001C
:100020000C9451000C9451000C9451000C9451000C
:100030000C9451000C9451000C9451000C945100FC
:100040000C9451000C9451000C9451000C945100EC
:100050000C9451000C9451000C9451000C945100DC
:100060000C9451000C94510011241FBECFEFD8E026
:10007000DEBFCDBF11E0A0E0B1E0E2E9F2E002C0F6
:1000800005900D92A630B107D9F721E0A6E0B1E0C6
:1000900001C01D92A730B207E1F70E94EE000C9458
:1000A00047010C94000090E0880F991F8093BA00DC
:1000B000ECEBF0E080818460808380818F7D8083A1
:1000C00080818F7E808308958091B900887F089514
:1000D0009091BC0090649093BC009091BC0097FFFD
:1000E000FCCF9091B900987F90930601882311F07E
:1000F00020E601C028EA81E0291301C080E00895CC
:100100008093BB008091BC0080688093BC0080918C
:10011000BC0087FFFCCF8091B900887F80930601E7
:10012000883B21F0883C21F082E0089580E008952A
:1001300081E008950F931F93CF938C01C0E0F801E5
:10014000EC0FF11D8081882339F00E94800080939C
:100150000601CF5F882399F3CF911F910F910895E6
:100160008091BC0080688093BC0080E09091BC00CE
:1001700097FD03C08091BB00F9CF9091B900292F62
:10018000287F20930601907F903809F08FEF089523
:100190000F931F93CF93C62FFC01E60FF11D108222
:1001A0008C01CC23B9F0C1508091BC008064809355
:1001B000BC00C11105C08091BC008F7B8093BC0046
:1001C0000E94B000809306018F3F21F0F8018193D7
:1001D0008F01E7CFCF911F910F910895CF93DF93B8
:1001E000CDB7DEB72B970FB6F894DEBF0FBECDBFED
:1001F00087B1876087B988B1876088B985E50E9433
:10020000530081E00E94680061E0CE0101960E94E7
:10021000C8008091BC008B7F8093BC0089818B34A7
:1002200009F4309A85E50E94530081E00E9468003D
:1002300065E0CE0101960E94C8008091BC008B7FD2
:100240008093BC0060E071E0CE0101960E943E0107
:10025000892B09F4319A85E50E94530080E00E94C1
:10026000680081E40E94800081E60E948000809105
:10027000BC008B7F8093BC00329AFFCFFB01DC0176
:100280008D91019080190110D9F3990B0895F8947C
:02029000FFCF9E
:060292004E6172656E0072
:00000001FF
