:100000000C9434000C9451000C9451000C94510049
:100010000C9451000C9451000C9451000C9451001C
:100020000C9451000C9451000C9451000C9451000C
:100030000C9451000C9451000C9451000C945100FC
:100040000C9451000C9451000C9451000C945100EC
:100050000C9451000C9451000C9451000C945100DC
:100060000C9451000C94510011241FBECFEFD8E026
:10007000DEBFCDBF11E0A0E0B1E0EAECF5E002C0E8
:1000800005900D92AC31B107D9F721E0ACE1B1E0B8
:1000900001C01D92AD31B207E1F70E9471020C94CC
:1000A000E3020C940000E2ECF0E080818F7B80831F
:1000B00080818F77808380818F7E808380818F7D18
:1000C00080838081877F8083A1ECB0E08C918B7FDF
:1000D0008C93808184608083808182608083109291
:1000E000C50089E68093C4008C9188608C932FEFC3
:1000F00089E698E1215080409040E1F700C000007F
:1001000008959091C00095FFFCCF8093C60008959C
:10011000CF93C82F8EEF0E9481008C2FCF910C942B
:10012000810081E00C94880082E00C94880084E0D7
:100130000C94880086E00C94880087E00C9488007A
:1001400085E00C94880088E00C9488008CE00C9486
:1001500088008EE00C9488008DE00C9488008FE07D
:100160000C94880080E10C94880084E10C94880051
:1001700088E10C9488008CE10C948800CF93DF9385
:10018000EC018991882319F00E948100FACFDF9158
:10019000CF910895813011F48FE703C0823021F4AC
:1001A0008FEB860F0C94880008950F931F93CF93C5
:1001B000DF93EC018C01060F111DC017D10721F050
:1001C00089910E948100F9CFDF91CF911F910F910A
:1001D00008951F93CF93DF93CDB7DEB760970FB627
:1001E000F894DEBF0FBECDBF162F4AE0BE016F5F91
:1001F0007F4F0E94AE02612FCE0101960E94D50072
:1002000060960FB6F894DEBF0FBECDBFDF91CF91E1
:100210001F91089510921C0188E48093B800E9EBC7
:10022000F0E080818E7F808380818D7F8083089540
:100230008091B900887F08958091BC00846080938C
:10024000BC008091BC0080628093BC008091BC00A7
:1002500080688093BC008091BC0087FFFCCF8091B8
:10026000B900887F80931C0180E00895ECEBF0E0FA
:1002700080818F7D808380818061808380818068A0
:10028000808380818F7E808380818B7F808380E0EC
:100290000895880F682B6093BB008091BC00806834
:1002A0008093BC008091BC0087FFFCCF8091B90097
:1002B000887F80931C0180E008958093BB0080912B
:1002C000BC0080688093BC008091BC0087FFFCCF9D
:1002D0008091B900887F80931C01883221F080339F
:1002E00021F082E0089580E0089581E00895CF93A1
:1002F000DF93EC018991882331F00E945D018093A6
:100300001C018823B9F3DF91CF9108958091BC003F
:1003100080688093BC0080E09091BC0097FD03C092
:100320008091BB00F9CF9091B900987F90931C0108
:10033000983509F081E00895CF92DF92EF92FF9215
:100340000F931F93CF93DF93C62FD0E0FC01EC0FE8
:10035000FD1F10828C01E12CF12C6E0181E0C81A86
:10036000D108EC16FD06D1F08091BC00806480932A
:10037000BC00CE14DF0429F48091BC008F7B8093F5
:10038000BC000E94860180931C018F3F39F0F80168
:1003900081938F01FFEFEF1AFF0AE3CFDF91CF9137
:1003A0001F910F91FF90EF90DF90CF9008951F93D2
:1003B000CF93DF93C82F162FD42F0E941C0160E02B
:1003C000812F80650E9449018D2F0E945D018C2F35
:1003D0000E945D01DF91CF911F910C943601CF9265
:1003E000DF92FF920F931F93CF93DF93D82E192F95
:1003F000062FF42E0E941C01006560E0802F0E94F1
:1004000049018F2D0E945D01CD2DD12F10E080E19B
:10041000F80E6E0188818823A9F01F5F113161F405
:100420000E9436010E941C0160E0802F0E94490159
:100430008F2D0E945D0110E02196F60180810E94BF
:100440005D01E7CFDF91CF911F910F91FF90DF907A
:10045000CF900C943601CF93DF93C82FD62F0E94F4
:100460001C01C06560E08C2F0E9449018D2F0E9405
:100470005D010E9436010E941C0161E08C2F0E94E8
:1004800049010E948601C82F0E9436018C2FDF91FE
:10049000CF910895CF92DF92EF92FF920F931F9327
:1004A000CF93DF938C01D62FC42E7C01D62ED20E93
:1004B000C22FCD1549F06C2F8C2D0E942B02F70115
:1004C00081937F01CF5FF5CFF801ED0FF11D108211
:1004D000DF91CF911F910F91FF90EF90DF90CF9020
:1004E0000895CF93DF93CDB7DEB7E2970FB6F894B8
:1004F000DEBF0FBECDBF0E9453000E940A0140E044
:1005000060E081E40E94D70180E80E9488008FE3C8
:100510009CE90197F1F700C0000060E080E00E94D4
:100520002B020E94810040E060E080E091E00E94A8
:10053000EF018FE39CE90197F1F700C0000080EC28
:100540000E94880020E040E062E1CE0101960E9416
:100550004A02CE0101960E94BE00FFCFBB274A305F
:1005600031F4992322F4BDE2909581959F4F0C942C
:10057000BA02BB27FB015527AA27880F991FAA1F7C
:10058000A41710F0A41B83955051B9F7A05DAA33AE
:1005900008F0A95DA193009779F7B111B193119279
:1005A000CB010C94D302DC01FC01672F71917723FE
:1005B000E1F7329704C07C916D9370836291AE171E
:0A05C000BF07C8F30895F894FFCFB9
:1005CA006162636465666768696A6B6C6D6E6F7099
:0C05DA007172737475767778797A00007E
:00000001FF
