:100000000C9434000C9446000C9446000C9446006A
:100010000C9446000C9446000C9446000C94460048
:100020000C9446000C9446000C9446000C94460038
:100030000C9446000C9446000C9446000C94460028
:100040000C9446000C9446000C9446000C94460018
:100050000C9446000C9446000C9446000C94460008
:100060000C9446000C94460011241FBECFEFD8E03C
:10007000DEBFCDBF21E0A0E0B1E001C01D92A13004
:10008000B207E1F70E9483010C948C010C940000EC
:100090001092000188E48093B800E9EBF0E08081E1
:1000A0008E7F808380818D7F808308958091B900C9
:1000B000887F08958091BC0084608093BC0080910B
:1000C000BC0080628093BC008091BC0080688093FB
:1000D000BC008091BC0087FFFCCF8091B900887F75
:1000E0008093000180E00895ECEBF0E080818F7D4B
:1000F000808380818061808380818068808380812B
:100100008F7E808380818B7F808380E00895880F3D
:10011000682B6093BB008091BC0080688093BC001A
:100120008091BC0087FFFCCF8091B900887F8093CD
:10013000000180E008958093BB008091BC0080683E
:100140008093BC008091BC0087FFFCCF8091B900F8
:10015000887F80930001883221F0803321F082E093
:10016000089580E0089581E00895CF93DF93EC0136
:100170008991882331F00E949B008093000188239D
:10018000B9F3DF91CF9108958091BC00806880938E
:10019000BC0080E09091BC0097FD03C08091BB0043
:1001A000F9CF9091B900987F90930001983509F0AC
:1001B00081E00895CF92DF92EF92FF920F931F9309
:1001C000CF93DF93C62FD0E0FC01EC0FFD1F108210
:1001D0008C01E12CF12C6E0181E0C81AD108EC16DB
:1001E000FD06D1F08091BC0080648093BC00CE14E9
:1001F000DF0429F48091BC008F7B8093BC000E94B7
:10020000C400809300018F3F39F0F80181938F0182
:10021000FFEFEF1AFF0AE3CFDF91CF911F910F910C
:10022000FF90EF90DF90CF900895CF93C82F0E945A
:100230005A008FE39CE90197F1F700C0000060E0ED
:100240008EE30E9487008FE39CE90197F1F700C0DD
:10025000000080E00E949B008FE39CE90197F1F78A
:1002600000C000008C2F0E949B008FE39CE9019747
:10027000F1F700C000000E9474008FE39CE9019731
:10028000F1F700C00000CF910895CF93C82F0E94CE
:100290005A008FE39CE90197F1F700C0000060E08D
:1002A0008EE30E9487008FE39CE90197F1F700C07D
:1002B000000080E40E949B008FE39CE90197F1F726
:1002C00000C000008C2F0E949B008FE39CE90197E7
:1002D000F1F700C000000E9474008FE39CE90197D1
:1002E000F1F700C00000CF9108950E94480088E314
:1002F0000E94150186E00E9415018EE00E94150102
:1003000080E80C9445010E94750181E60E94450138
:0C03100086E70E944501FFCFF894FFCF64
:00000001FF
