:100000000C9434000C9449000C9449000C94490061
:100010000C9449000C9449000C9449000C9449003C
:100020000C9449000C9449000C9449000C9449002C
:100030000C9449000C9449000C9449000C9449001C
:100040000C9449000C9449000C9449000C9449000C
:100050000C9449000C9449000C9449000C944900FC
:100060000C9449000C94490011241FBECFEFD8E036
:10007000DEBFCDBF11E0A0E0B1E0ECEEF3E002C0E6
:1000800005900D92A631B107D9F70E9497010C9403
:10009000F4010C940000E2ECF0E080818F7B80831F
:1000A00080818F77808380818F7E808380818F7D28
:1000B00080838081877F8083A1ECB0E08C918B7FEF
:1000C0008C938081846080838081826080831092A1
:1000D000C50089E68093C4008C9188608C932FEFD3
:1000E00089E698E1215080409040E1F700C000008F
:1000F00008959091C00095FFFCCF8093C6000895AD
:10010000CF93C82F8EEF0E9479008C2FCF910C9443
:10011000790081E00C94800082E00C94800084E0FF
:100120000C94800086E00C94800087E00C948000A2
:1001300085E00C94800088E00C9480008CE00C94A6
:1001400080008EE00C9480008DE00C9480008FE0A5
:100150000C94800080E10C94800084E10C94800079
:1001600088E10C9480008CE10C948000CF93DF93A5
:10017000EC018991882319F00E947900FACFDF9170
:10018000CF910895813011F48FE703C0823021F4BC
:100190008FEB860F0C94800008950F931F93CF93DD
:1001A000DF93EC018C01060F111DC017D10721F060
:1001B00089910E947900F9CFDF91CF911F910F9122
:1001C00008951F93CF93DF93CDB7DEB760970FB637
:1001D000F894DEBF0FBECDBF162F4AE0BE016F5FA1
:1001E0007F4F0E94BF01612FCE0101960E94CD007A
:1001F00060960FB6F894DEBF0FBECDBFDF91CF91F2
:100200001F91089584B18C6284B9249885B1877D4B
:1002100085B92A9A8CB58F778CBD8CB58F7D8CBDB6
:100220008CB580618CBD8CB5877F8CBD8CB58B7F88
:100230008CBD8DB58E7F8DBD8CB58D7F8CBD8CB505
:100240008E7F8CBD8CB580648CBD08958EBD0DB441
:1002500007FEFDCF8EB508950F931F93CF93DF93C5
:10026000EC018B012A9886E00E9426012A9A8FE9E8
:100270009FE00197F1F700C000002A9882E00E94F9
:1002800026018D2F0E9426018C2F0E942601E80155
:100290008991882319F00E942601FACF2A9ADF91CA
:1002A000CF911F910F9108951F93CF93DF93D82F74
:1002B000192FC62F2A9886E00E9426012A9A8FE9D4
:1002C0009FE00197F1F700C000002A9882E00E94A9
:1002D0002601812F0E9426018D2F0E9426018C2F3E
:1002E0000E9426012A9A8FE99FE00197F1F700C04A
:1002F0000000DF91CF911F910895CF93DF93EC0120
:100300002A9883E00E9426018D2F0E9426018C2FBF
:100310000E9426018FEF0E9426012A9AEFE9FFE052
:100320003197F1F700C00000DF91CF9108950E944E
:100330004B000E9402018FE39CE90197F1F700C096
:10034000000060E071E080E090E00E942C018FE30B
:100350009CE90197F1F700C00000C0E0D0E0CE01B9
:100360000E947D01182F8C2F80540E948000812FC5
:100370000E9479002196C031D10589F7FFCFBB27B4
:100380004A3031F4992322F4BDE2909581959F4F34
:100390000C94CB01BB27FB015527AA27880F991F77
:1003A000AA1FA41710F0A41B83955051B9F7A05DA4
:1003B000AA3308F0A95DA193009779F7B111B19321
:1003C0001192CB010C94E401DC01FC01672F7191C7
:1003D0007723E1F7329704C07C916D93708362912B
:0C03E000AE17BF07C8F30895F894FFCFD4
:1003EC0068692068656C6C6F20616E642077656C41
:0603FC00636F6D65000057
:00000001FF
