:100000000C9434000C943E000C943E000C943E0082
:100010000C943E000C943E000C943E000C943E0068
:100020000C943E000C943E000C943E000C943E0058
:100030000C943E000C943E000C949D000C943E00E9
:100040000C943E000C943E000C943E000C943E0038
:100050000C943E000C943E000C943E000C943E0028
:100060000C943E000C943E0011241FBECFEFD8E04C
:10007000DEBFCDBF0E94A8000C94C0000C9400000D
:1000800084B58E7F84BD84B5826084BD85B5877F4D
:1000900085BD84B58F7784BD84B5806484BD84B507
:1000A0008F7D84BD84B5806184BDEEE6F0E0808103
:1000B0008260808382E387BD85B5826085BD85B51A
:1000C0008A7F85BD7894089584B58E7F84BD84B57C
:1000D000826084BD85B5877F85BDEEE6F0E08081D6
:1000E000826080838AE087BD85B5846085BD85B5E3
:1000F000826085BD85B58E7F85BD7894089524B5D1
:100100002E7F24BD24B5226024BD25B5277F25BDC3
:1001100039EF615071098109910970F037BD25B53A
:10012000216025BD25B5226025BD25B52B7F25BDC8
:10013000A99BFECFA99AEDCF08951F920F920FB6FB
:100140000F921124319A0F900FBE0F901F901895A7
:100150008AB180668AB95498209A87B1836087B93A
:100160004098409864E670E080E090E00E947F0054
:10017000409A64E670E080E090E00E947F00F1CF5A
:04018000F894FFCF21
:00000001FF
