:100000000C9434000C943E000C943E000C943E0082
:100010000C943E000C943E000C943E000C943E0068
:100020000C943E000C943E000C943E000C94E402B0
:100030000C94DA020C94EE020C943E000C943E00F8
:100040000C943E000C943E000C943E000C943E0038
:100050000C943E000C943E000C943E000C943E0028
:100060000C943E000C943E0011241FBECFEFD8E04C
:10007000DEBFCDBF0E94F8020C9430050C94000046
:10008000E0E8F0E08081816080838081826080830D
:10009000A1E8B0E08C9188608C938C918F7E8C93DA
:1000A00080818068808380818F7B80838081806273
:1000B000808380818F7E8083EFE6F0E080818160A5
:1000C000808380818260808380818460808386E6F3
:1000D00090E090938900809388008FEF92E0909356
:1000E0008B0080938A008C9181608C938C918D7FA2
:1000F0008C938C918B7F8C9378940895E0E8F0E05A
:10010000808181608083808182608083A1E8B0E00B
:100110008C9188608C938C918F7E8C938081806889
:1001200080838081806480838081806280838081FD
:1001300080618083EFE6F0E0808181608083808150
:100140008260808380818460808386E690E09093E3
:100150008900809388008FEF92E090938B008093CA
:100160008A008C9181608C938C918D7F8C938C9183
:100170008B7F8C9378940895A0E8B0E08C91816097
:100180008C938C9182608C93E1E8F0E080818860B0
:1001900080838081806180838C918F7E8C938C9111
:1001A00080628C9389E698E7909389008093880019
:1001B00080E29AE190938B0080938A00AFE6B0E0F2
:1001C0008C9181608C938C9184608C938081816010
:1001D000808380818D7F808380818B7F80837894F2
:1001E0000895A0E8B0E08C9181608C938C9182603E
:1001F0008C93E1E8F0E08081886080838081806179
:1002000080838C9180618C938C9180628C9389E641
:1002100098E7909389008093880080E29AE1909318
:100220008B0080938A00AFE6B0E08C9181608C9364
:100230008C9184608C9380818160808380818D7FAC
:10024000808380818B7F808378940895A0E8B0E0DC
:100250008C9181608C938C9182608C93E1E8F0E0CA
:100260008081886080838081806180838C918F7D94
:100270008C938C9180618C9384E392E190938900BC
:100280008093880080818160808380818D7F8083DE
:1002900080818B7F808378940895CF92DF92EF9254
:1002A000FF920F931F9389019A01060F171F281FB2
:1002B000391FE0918000E160E0938000E0918000D0
:1002C000E260E0938000E0918100E860E0938100CB
:1002D000E0918100E061E0938100E0918000E061C5
:1002E000E0938000E0918000E062E09380000430C1
:1002F00011052105310560F41092890010928800E3
:1003000010928B0010928A00809181008E7F28C00D
:100310006801790144E0C41AD108E108F1084DE907
:10032000C4164FE0D406E104F10400F59801E4E0BE
:10033000220F331FEA95E1F72150310930938900EC
:1003400020938800F4E0660F771FFA95E1F761507B
:10035000710970938B0060938A00809181008160A5
:1003600080938100809181008D7F83C06801790135
:1003700041EAC41A4FE0D40AE108F10840E6C41685
:100380004DE6D406E104F10480F544E0000F111FAE
:10039000221F331F4A95D1F753E0369527951795BD
:1003A00007955A95D1F7980121503109309389006A
:1003B00020938800DC01CB0164E0880F991FAA1FFD
:1003C000BB1F6A95D1F773E0B695A795979587956A
:1003D0007A95D1F7BC016150710970938B006093DD
:1003E0008A00809181008E7F3FC06801790141E0E1
:1003F000C41A4DE7D40AE108F10840EAC4164AE7F6
:10040000D40643E0E406F104D0F5E4E0000F111F48
:10041000221F331FEA95D1F7F6E0369527951795F9
:100420000795FA95D1F79801215031093093890049
:1004300020938800DC01CB0114E0880F991FAA1FCC
:10044000BB1F1A95D1F706E0B695A79597958795A6
:100450000A95D1F7BC016150710970938B006093CC
:100460008A00809181008160809381008091810069
:10047000826080938100809181008B7F44C06801FD
:10048000790141EAC41A47EFD40A43E0E40AF108CB
:1004900040EAC4164AE4D4064BE0E406F104A8F5A9
:1004A00044E0000F111F221F331F4A95D1F7012F7F
:1004B000122F232F332798012150310930938900BF
:1004C00020938800DC01CB0164E0880F991FAA1FEC
:1004D000BB1F6A95D1F7892F9A2FAB2FBB27BC0181
:1004E0006150710970938B0060938A008091810044
:1004F0008E7F80938100809181008D7F8093810029
:10050000809181008460809381001F910F91FF9002
:10051000EF90DF90CF9008958F929F92AF92BF920D
:10052000CF92DF92EF92FF926B017C01CA01B90179
:100530000E9411049B01AC0160E074E284E799E43D
:100540000E9470034B015C0120E030E048EC52E473
:10055000C701B6010E947003A50194010E94C30463
:100560006B017C0120E030E040E85FE30E946B0318
:1005700087FF06C0C12CD12C80E8E82E8FE3F82E2F
:10058000A7019601C501B4010E94FE020E94E20388
:100590004B015C01C701B6010E94E203A501940171
:1005A000FF90EF90DF90CF90BF90AF909F908F9093
:1005B0000C944D011F920F920FB60F9211240F90C1
:1005C0000FBE0F901F9018951F920F920FB60F92AB
:1005D00011240F900FBE0F901F9018951F920F922D
:1005E0000FB60F9211240F900FBE0F901F90189509
:1005F00084B1866084B90E94BC00FFCF5058BB27ED
:10060000AA270E9416030C9489040E947B0438F0E8
:100610000E94820420F039F49F3F19F426F40C94D0
:1006200078040EF4E095E7FB0C947204E92F0E9425
:100630009A0458F3BA17620773078407950720F0E6
:1006400079F4A6F50C94BC040EF4E0950B2EBA2FA9
:10065000A02D0B01B90190010C01CA01A0011124C8
:10066000FF27591B99F0593F50F4503E68F11A1674
:10067000F040A22F232F342F4427585FF3CF469505
:1006800037952795A795F0405395C9F77EF41F1627
:10069000BA0B620B730B840BBAF09150A1F0FF0FF1
:1006A000BB1F661F771F881FC2F70EC0BA0F621FDD
:1006B000731F841F48F4879577956795B795F795CD
:1006C0009E3F08F0B0CF9395880F08F09927EE0F62
:1006D0009795879508950E944E0408F481E0089547
:1006E0000E9484030C9489040E94820458F00E94A2
:1006F0007B0440F029F45F3F29F00C9472045111FF
:100700000C94BD040C9478040E949A0468F3992315
:10071000B1F3552391F3951B550BBB27AA276217FD
:100720007307840738F09F5F5F4F220F331F441F0A
:10073000AA1FA9F335D00E2E3AF0E0E832D091503E
:100740005040E695001CCAF72BD0FE2F29D0660F2B
:10075000771F881FBB1F261737074807AB07B0E86E
:1007600009F0BB0B802DBF01FF2793585F4F3AF074
:100770009E3F510578F00C9472040C94BD045F3FC9
:10078000E4F3983ED4F3869577956795B795F795FA
:100790009F5FC9F7880F911D9695879597F90895E2
:1007A000E1E0660F771F881FBB1F6217730784077E
:1007B000BA0720F0621B730B840BBA0BEE1F88F78D
:1007C000E09508950E94A20488F09F5798F0B92FF1
:1007D0009927B751B0F0E1F0660F771F881F991F76
:1007E0001AF0BA95C9F714C0B13091F00E94BC0458
:1007F000B1E008950C94BC04672F782F8827B85F68
:1008000039F0B93FCCF3869577956795B395D9F7CD
:100810003EF490958095709561957F4F8F4F9F4FD7
:100820000895E89409C097FB3EF4909580957095E3
:1008300061957F4F8F4F9F4F9923A9F0F92F96E92C
:10084000BB279395F695879577956795B795F111A1
:10085000F8CFFAF4BB0F11F460FF1BC06F5F7F4F3E
:100860008F4F9F4F16C0882311F096E911C0772350
:1008700021F09EE8872F762F05C0662371F096E859
:10088000862F70E060E02AF09A95660F771F881F28
:10089000DAF7880F9695879597F90895990F0008CC
:1008A000550FAA0BE0E8FEEF16161706E807F90742
:1008B000C0F012161306E407F50798F0621B730BDD
:1008C000840B950B39F40A2661F0232B242B252B5E
:1008D00021F408950A2609F4A140A6958FEF811D01
:1008E000811D089597F99F6780E870E060E00895A2
:1008F0009FEF80EC089500240A9416161706180638
:100900000906089500240A94121613061406050613
:100910000895092E0394000C11F4882352F0BB0FA4
:1009200040F4BF2B11F460FF04C06F5F7F4F8F4F07
:100930009F4F089557FD9058440F551F59F05F3F42
:1009400071F04795880F97FB991F61F09F3F79F0F1
:1009500087950895121613061406551FF2CF469573
:10096000F1DF08C0161617061806991FF1CF8695F5
:100970007105610508940895E894BB2766277727D9
:10098000CB0197F908950E94D6040C9489040E9423
:100990007B0438F00E94820420F0952311F00C941F
:1009A00072040C94780411240C94BD040E949A04DF
:1009B00070F3959FC1F3950F50E0551F629FF001B2
:1009C000729FBB27F00DB11D639FAA27F00DB11DCB
:1009D000AA1F649F6627B00DA11D661F829F222754
:1009E000B00DA11D621F739FB00DA11D621F839FDB
:1009F000A00D611D221F749F3327A00D611D231FB1
:100A0000849F600D211D822F762F6A2F11249F57FE
:100A100050409AF0F1F088234AF0EE0FFF1FBB1F01
:100A2000661F771F881F91505040A9F79E3F5105C0
:100A300080F00C9472040C94BD045F3FE4F3983E84
:100A4000D4F3869577956795B795F795E7959F5F6A
:100A5000C1F7FE2B880F911D9695879597F90895FC
:040A6000F894FFCF38
:00000001FF
