:100000000C9434000C943E000C943E000C943E0082
:100010000C943E000C943E000C943E000C940C0298
:100020000C9402020C9416020C943E000C943E00B8
:100030000C943E000C943E000C943E000C943E0048
:100040000C943E000C943E000C943E000C943E0038
:100050000C943E000C943E000C943E000C943E0028
:100060000C943E000C943E0011241FBECFEFD8E04C
:10007000DEBFCDBF0E9420020C9457040C940000F8
:10008000E0EBF0E080818160808380818D7F8083E0
:10009000A1EBB0E08C91877F8C9380818068808316
:1000A00080818F7B808380818062808380818F7E4E
:1000B0008083E0E7F0E080818160808389E1809344
:1000C000B30080EC8093B4008C9181608C938C9110
:1000D0008D7F8C938C918B7F8C93789408950C9466
:1000E0004000A0EBB0E08C9181608C938C918D7F6F
:1000F0008C93E1EBF0E08081886080838C9180625A
:100100008C938C918F7E8C9380E78093B30080E6F4
:100110008093B40080818160808380818D7F808323
:1001200080818B7F808378940895A0EBB0E08C91E0
:1001300081608C938C918D7F8C93E1EBF0E08081DA
:10014000886080838C9180628C938C9180618C9389
:1001500080E78093B30080E68093B4008081816063
:10016000808380818D7F808380818B7F8083789462
:100170000895A0EBB0E08C9181608C938C918D7F81
:100180008C93E1EBF0E08081886080838C918F77A5
:100190008C938C9180648C9380E78093B3008081F2
:1001A0008160808380818D7F808380818B7F80834D
:1001B00078940895CF92DF92EF92FF920F931F935E
:1001C0006B017C01F694E794D794C794DA01C901D6
:1001D000B695A795979587958C0D9D1DAE1DBF1D56
:1001E0002091B00021602093B0002091B0002D7FBD
:1001F0002093B0002091B10028602093B10020919D
:10020000B00020622093B0002091B0002F7E209398
:10021000B00084309105A105B10530F41092B3000F
:100220008091B1008E7F19C08C019D01045011098D
:10023000210931090D30110521053105A0F4829500
:10024000807F81508093B3006C2D6295607F6150F8
:100250006093B4008091B10081608093B10080917F
:10026000B1008D7F42C08C019D010151110921090E
:100270003109003711052105310568F4880F8150D7
:100280008093B3006C2D660F61506093B400809131
:10029000B1008E7F25C08C019D01015811092109F3
:1002A0003109003813402105310528F542E0B695A3
:1002B000A795979587954A95D1F781508093B3007C
:1002C000D701C60152E0B695A795979587955A959F
:1002D000D1F76FEF680F6093B4008091B100816037
:1002E0008093B1008091B10082608093B1008091D1
:1002F000B1008B7F30C08C019D0101501440210959
:10030000310901151C402105310538F524E0880F1D
:10031000991FAA1FBB1F2A95D1F78FEF890F8093D2
:10032000B300D701C60134E0880F991FAA1FBB1F75
:100330003A95D1F78FEF890F8093B4008091B10087
:100340008E7F8093B1008091B1008D7F8093B1004A
:100350008091B10084608093B1001F910F91FF9054
:10036000EF90DF90CF9008958F929F92AF92BF92BF
:10037000CF92DF92EF92FF926B017C01CA01B9012B
:100380000E9438039B01AC0160E074E284E799E4C9
:100390000E9497024B015C0120E030E048EC52E4FF
:1003A000C701B6010E949702A50194010E94EA03C9
:1003B0006B017C0120E030E040E85FE30E949202A4
:1003C00087FF06C0C12CD12C80E8E82E8FE3F82EE1
:1003D000A7019601C501B4010E9425020E940903EC
:1003E0004B015C01C701B6010E940903A5019401FC
:1003F000FF90EF90DF90CF90BF90AF909F908F9045
:100400000C94DA001F920F920FB60F9211240F90E6
:100410000FBE0F901F9018951F920F920FB60F925C
:1004200011240F900FBE0F901F9018951F920F92DE
:100430000FB60F9211240F900FBE0F901F901895BA
:10044000539A239A0E944000FFCF5058BB27AA27F7
:100450000E943D020C94B0030E94A20338F00E9457
:10046000A90320F039F49F3F19F426F40C949F035C
:100470000EF4E095E7FB0C949903E92F0E94C10369
:1004800058F3BA17620773078407950720F079F4C9
:10049000A6F50C94E3030EF4E0950B2EBA2FA02DD5
:1004A0000B01B90190010C01CA01A0011124FF2721
:1004B000591B99F0593F50F4503E68F11A16F0401C
:1004C000A22F232F342F4427585FF3CF469537951B
:1004D0002795A795F0405395C9F77EF41F16BA0BE0
:1004E000620B730B840BBAF09150A1F0FF0FBB1F8E
:1004F000661F771F881FC2F70EC0BA0F621F731FD7
:10050000841F48F4879577956795B795F7959E3F33
:1005100008F0B0CF9395880F08F09927EE0F9795C4
:10052000879508950E94750308F481E008950E945C
:10053000AB020C94B0030E94A90358F00E94A203DE
:1005400040F029F45F3F29F00C94990351110C9469
:10055000E4030C949F030E94C10368F39923B1F351
:10056000552391F3951B550BBB27AA2762177307D9
:10057000840738F09F5F5F4F220F331F441FAA1F6D
:10058000A9F335D00E2E3AF0E0E832D09150504029
:10059000E695001CCAF72BD0FE2F29D0660F771FD7
:1005A000881FBB1F261737074807AB07B0E809F0BD
:1005B000BB0B802DBF01FF2793585F4F3AF09E3F42
:1005C000510578F00C9499030C94E4035F3FE4F335
:1005D000983ED4F3869577956795B795F7959F5F85
:1005E000C9F7880F911D9695879597F90895E1E0D1
:1005F000660F771F881FBB1F621773078407BA0730
:1006000020F0621B730B840BBA0BEE1F88F7E0958A
:1006100008950E94C90388F09F5798F0B92F992731
:10062000B751B0F0E1F0660F771F881F991F1AF0DD
:10063000BA95C9F714C0B13091F00E94E303B1E05C
:1006400008950C94E303672F782F8827B85F39F05B
:10065000B93FCCF3869577956795B395D9F73EF476
:1006600090958095709561957F4F8F4F9F4F08951E
:10067000E89409C097FB3EF490958095709561953C
:100680007F4F8F4F9F4F9923A9F0F92F96E9BB27F2
:100690009395F695879577956795B795F111F8CF6E
:1006A000FAF4BB0F11F460FF1BC06F5F7F4F8F4FD9
:1006B0009F4F16C0882311F096E911C0772321F0CF
:1006C0009EE8872F762F05C0662371F096E8862F67
:1006D00070E060E02AF09A95660F771F881FDAF7BE
:1006E000880F9695879597F90895990F0008550FEB
:1006F000AA0BE0E8FEEF16161706E807F907C0F0A8
:1007000012161306E407F50798F0621B730B840BAF
:10071000950B39F40A2661F0232B242B252B21F489
:1007200008950A2609F4A140A6958FEF811D811D29
:10073000089597F99F6780E870E060E008959FEF63
:1007400080EC089500240A94161617061806090668
:10075000089500240A941216130614060506089537
:10076000092E0394000C11F4882352F0BB0F40F4BF
:10077000BF2B11F460FF04C06F5F7F4F8F4F9F4FFF
:10078000089557FD9058440F551F59F05F3F71F081
:100790004795880F97FB991F61F09F3F79F08795E8
:1007A0000895121613061406551FF2CF4695F1DF71
:1007B00008C0161617061806991FF1CF8695710501
:1007C000610508940895E894BB2766277727CB0135
:1007D00097F908950E94FD030C94B0030E94A203B0
:1007E00038F00E94A90320F0952311F00C9499038E
:1007F0000C949F0311240C94E4030E94C10370F332
:10080000959FC1F3950F50E0551F629FF001729FB5
:10081000BB27F00DB11D639FAA27F00DB11DAA1FC4
:10082000649F6627B00DA11D661F829F2227B00D11
:10083000A11D621F739FB00DA11D621F839FA00D9C
:10084000611D221F749F3327A00D611D231F849FEC
:10085000600D211D822F762F6A2F11249F57504043
:100860009AF0F1F088234AF0EE0FFF1FBB1F661FBE
:10087000771F881F91505040A9F79E3F510580F087
:100880000C9499030C94E4035F3FE4F3983ED4F393
:10089000869577956795B795F795E7959F5FC1F72B
:1008A000FE2B880F911D9695879597F90895F894DA
:0208B000FFCF78
:00000001FF
