:100000000C9434000C943E000C943E000C943E0082
:100010000C943E000C943E000C943E000C943E0068
:100020000C943E000C943E000C943E000C94830112
:100030000C943E000C943E000C943E000C943E0048
:100040000C943E000C943E000C943E000C943E0038
:100050000C943E000C943E000C943E000C943E0028
:100060000C943E000C943E0011241FBECFEFD8E04C
:10007000DEBFCDBF0E948E010C949E010C94000047
:10008000E0E8F0E080818E7F808380818D7F8083B7
:10009000A1E8B0E08C9188608C938C918F7E8C93DA
:1000A00080818064808380818F778083808180617C
:1000B000808380818F7D8083EFE6F0E080818260A5
:1000C000808381E698E490938900809388008C91E6
:1000D00081608C938C918D7F8C938C918B7F8C9392
:1000E00078940895A0E8B0E08C918E7F8C938C91E9
:1000F0008D7F8C93E1E8F0E080818860808380814F
:100100008F7E80838C9180648C938C918F778C937D
:100110008AE090E09093890080938800AFE6B0E099
:100120008C9182608C9380818E7F808380818260BD
:100130008083808184608083789408950F931F93D7
:10014000209180002E7F20938000209180002D7FC1
:1001500020938000209181002860209381002091CD
:1001600081002F7E20938100209180002F772093A3
:100170008000209180002F7B2093800064307105E7
:100180008105910540F410928900109288008091B9
:1001900081008E7F19C08B019C0104501109210937
:1001A00031090D391F4021053105A0F4E4E0660F47
:1001B000771FEA95E1F761507109709389006093A8
:1001C000880080918100816080938100809181000E
:1001D0008D7F50C08B019C01015A1F4021093109BC
:1001E00000361D4621053105D8F4DC01CB0164E061
:1001F000880F991FAA1FBB1F6A95D1F773E0B695A8
:10020000A795979587957A95D1F7BC0161507109AB
:100210007093890060938800809181008E7F25C053
:100220008B019C0101501D4721093109003A1A47F1
:100230002340310528F5DC01CB0144E0880F991FEC
:10024000AA1FBB1F4A95D1F756E0B695A79597957B
:1002500087955A95D1F7BC01615071097093890057
:1002600060938800809181008160809381008091FB
:100270008100826080938100809181008B7F3BC0F0
:100280008B019C01015A174F23403109DC01CB013E
:10029000003A1A442B40310598F424E0880F991F46
:1002A000AA1FBB1F2A95D1F7892F9A2FAB2FBB27E7
:1002B000BC016150710970938900609388000EC081
:1002C000BC01CD01605472448F4091090E949E0090
:1002D00083E294EF9093890080938800809181005D
:1002E0008E7F80938100809181008D7F809381003B
:1002F00080918100846080938100B19BFECFB19A90
:100300001F910F9108951F920F920FB60F92112413
:10031000319A0F900FBE0F901F90189584B1866090
:1003200084B9559887B1836087B94098309A60E95D
:1003300071E080E090E00E949E00F8CFF894FFCF3B
:00000001FF
