:100000000C9434000C943E000C943E000C943E0082
:100010000C943E000C943E000C943E000C94940012
:100020000C943E000C943E000C943E000C943E0058
:100030000C943E000C943E000C943E000C943E0048
:100040000C943E000C943E000C943E000C943E0038
:100050000C943E000C943E000C943E000C943E0028
:100060000C943E000C943E0011241FBECFEFD8E04C
:10007000DEBFCDBF0E949E000C94B1000C94000026
:10008000E0EBF0E080818E7F8083808182608083DE
:10009000A1EBB0E08C91877F8C9380818F778083F8
:1000A00080818064808380818F7D80838081806176
:1000B0008083E0E7F0E080818260808382E3809348
:1000C000B3008C9182608C938C918A7F8C9378940E
:1000D00008952091B0002E7F2093B0002091B000B1
:1000E00022602093B0002091B100277F2093B100BF
:1000F00039EF6150710981099109A8F03093B3007B
:100100002091B10021602093B1002091B1002260C4
:100110002093B1002091B1002B7F2093B100B99BB7
:10012000FECFB99AE6CF08951F920F920FB60F92A5
:1001300011240F900FBE0F901F901895539A239A79
:10014000389A409840986AE070E080E090E00E9421
:100150006900409A6AE070E080E090E00E946900E7
:06016000F1CFF894FFCF7F
:00000001FF
