:100000000C9434000C943E000C943E000C943E0082
:100010000C943E000C943E000C943E000C943E0068
:100020000C943E000C943E000C943E000C949602FE
:100030000C948C020C94A0020C943E000C943E0094
:100040000C943E000C943E000C943E000C943E0038
:100050000C943E000C943E000C943E000C943E0028
:100060000C943E000C943E0011241FBECFEFD8E04C
:10007000DEBFCDBF0E94AA020C94EA040C940000DB
:10008000E0E8F0E08081816080838081826080830D
:10009000A1E8B0E08C91877F8C938C918F7E8C93BC
:1000A00080818068808380818F7B80838081806273
:1000B000808380818F7E8083EFE6F0E080818160A5
:1000C000808380818260808380818460808386E6F3
:1000D00090E090938900809388008FEF92E0909356
:1000E0008B0080938A008C9181608C938C918D7FA2
:1000F0008C938C918B7F8C9378940895E0E8F0E05A
:10010000808181608083808182608083A1E8B0E00B
:100110008C91877F8C938C918F7E8C93808180686B
:1001200080838081806480838081806280838081FD
:1001300080618083EFE6F0E0808181608083808150
:100140008260808380818460808386E690E09093E3
:100150008900809388008FEF92E090938B008093CA
:100160008A008C9181608C938C918D7F8C938C9183
:100170008B7F8C9378940895A0E8B0E08C91816097
:100180008C938C9182608C93E1E8F0E08081877F92
:1001900080838081806180838C9180628C938C913C
:1001A0008F7E8C9389E698E79093890080938800EE
:1001B00080E29AE190938B0080938A008081816035
:1001C000808380818D7F808380818B7F8083789402
:1001D0000895A0E8B0E08C9181608C938C9182604E
:1001E0008C93E1E8F0E08081877F8083808180616B
:1001F00080838C9180628C938C9180618C9389E652
:1002000098E7909389008093880080E29AE1909328
:100210008B0080938A0080818160808380818D7FC4
:10022000808380818B7F808378940895CF92DF9242
:10023000EF92FF926B017C01F694E794D794C794F8
:10024000DA01C901B695A795979587958C0D9D1DE7
:10025000AE1DBF1D409180004160409380004091E1
:10026000800042604093800040918100477F40932E
:100270008100409181004061409381004091800065
:100280004061409380004091800040624093800034
:1002900084309105A105B10560F410928900109297
:1002A000880010928B0010928A00809181008E7FCE
:1002B00023C0AC01BD0144505109610971094D3998
:1002C0005F4061057105F0F4E4E0880F991FEA953D
:1002D000E1F701979093890080938800C601F4E0CC
:1002E000880F991FFA95E1F7019790938B008093FF
:1002F0008A008091810081608093810080918100DB
:100300008D7F75C0AC01BD01415A5F406109710923
:1003100040365D466105710560F544E0880F991F20
:10032000AA1FBB1F4A95D1F753E0B695A79597959D
:1003300087955A95D1F7019790938900809388000B
:10034000D701C60164E0880F991FAA1FBB1F6A95D9
:10035000D1F773E0B695A795979587957A95D1F7DC
:10036000019790938B0080938A00809181008E7F0B
:1003700039C0AC01BD0141505D4761097109403A86
:100380005A4763407105C8F5AC01BD01E4E0440F74
:10039000551F661F771FEA95D1F7F6E076956795AA
:1003A00057954795FA95D1F74150510950938900D7
:1003B00040938800D701C60124E0880F991FAA1F27
:1003C000BB1F2A95D1F736E0B695A79597958795E7
:1003D0003A95D1F7019790938B0080938A00809192
:1003E0008100816080938100809181008260809390
:1003F0008100809181008B7F3AC0AC01BD01415AE0
:10040000574F63407109403A5A446B40710588F573
:1004100024E0880F991FAA1FBB1F2A95D1F7892FA7
:100420009A2FAB2FBB270197909389008093880068
:10043000D701C60144E0880F991FAA1FBB1F4A9528
:10044000D1F7892F9A2FAB2FBB27019790938B0061
:1004500080938A00809181008E7F809381008091BB
:1004600081008D7F809381008091810084608093E2
:100470008100FF90EF90DF90CF9008958F929F9230
:10048000AF92BF92CF92DF92EF92FF926B017C010D
:10049000CA01B9010E94CB039B01AC0160E074E288
:1004A00084E799E40E942A034B015C0120E030E0DC
:1004B00048EC52E4C701B6010E942A03A501940149
:1004C0000E947D046B017C0120E030E040E85FE3A6
:1004D0000E94250387FF06C0C12CD12C80E8E82E9E
:1004E0008FE3F82EA7019601C501B4010E94B8025E
:1004F0000E949C034B015C01C701B6010E949C0352
:10050000A5019401FF90EF90DF90CF90BF90AF9046
:100510009F908F900C9416011F920F920FB60F921E
:1005200011240F900FBE0F901F9018951F920F92DD
:100530000FB60F9211240F900FBE0F901F901895B9
:100540001F920F920FB60F9211240F900FBE0F90B3
:100550001F90189584B1866084B920E733E040E0AD
:1005600050E068E770E080E090E00E941601FFCF65
:100570005058BB27AA270E94D0020C9443040E9423
:10058000350438F00E943C0420F039F49F3F19F400
:1005900026F40C9432040EF4E095E7FB0C942C0442
:1005A000E92F0E94540458F3BA17620773078407AF
:1005B000950720F079F4A6F50C9476040EF4E095F6
:1005C0000B2EBA2FA02D0B01B90190010C01CA010D
:1005D000A0011124FF27591B99F0593F50F4503EB8
:1005E00068F11A16F040A22F232F342F4427585FAA
:1005F000F3CF469537952795A795F0405395C9F7C2
:100600007EF41F16BA0B620B730B840BBAF0915079
:10061000A1F0FF0FBB1F661F771F881FC2F70EC018
:10062000BA0F621F731F841F48F4879577956795EB
:10063000B795F7959E3F08F0B0CF9395880F08F0D7
:100640009927EE0F9795879508950E94080408F45E
:1006500081E008950E943E030C9443040E943C04F0
:1006600058F00E94350440F029F45F3F29F00C94C3
:100670002C0451110C9477040C9432040E945404FD
:1006800068F39923B1F3552391F3951B550BBB27C1
:10069000AA2762177307840738F09F5F5F4F220F06
:1006A000331F441FAA1FA9F335D00E2E3AF0E0E8FD
:1006B00032D091505040E695001CCAF72BD0FE2F47
:1006C00029D0660F771F881FBB1F261737074807DB
:1006D000AB07B0E809F0BB0B802DBF01FF27935893
:1006E0005F4F3AF09E3F510578F00C942C040C9427
:1006F00077045F3FE4F3983ED4F38695779567954A
:10070000B795F7959F5FC9F7880F911D96958795C7
:1007100097F90895E1E0660F771F881FBB1F6217E6
:1007200073078407BA0720F0621B730B840BBA0BA4
:10073000EE1F88F7E09508950E945C0488F09F57AB
:1007400098F0B92F9927B751B0F0E1F0660F771FF5
:10075000881F991F1AF0BA95C9F714C0B13091F0EB
:100760000E947604B1E008950C947604672F782FE8
:100770008827B85F39F0B93FCCF3869577956795B0
:10078000B395D9F73EF490958095709561957F4F1C
:100790008F4F9F4F0895E89409C097FB3EF49095C2
:1007A0008095709561957F4F8F4F9F4F9923A9F04A
:1007B000F92F96E9BB279395F695879577956795D9
:1007C000B795F111F8CFFAF4BB0F11F460FF1BC01D
:1007D0006F5F7F4F8F4F9F4F16C0882311F096E9B0
:1007E00011C0772321F09EE8872F762F05C066235E
:1007F00071F096E8862F70E060E02AF09A95660F17
:10080000771F881FDAF7880F9695879597F90895CF
:10081000990F0008550FAA0BE0E8FEEF1616170611
:10082000E807F907C0F012161306E407F50798F079
:10083000621B730B840B950B39F40A2661F0232B92
:10084000242B252B21F408950A2609F4A140A6950E
:100850008FEF811D811D089597F99F6780E870E0F3
:1008600060E008959FEF80EC089500240A94161626
:10087000170618060906089500240A94121613068E
:10088000140605060895092E0394000C11F488231C
:1008900052F0BB0F40F4BF2B11F460FF04C06F5F38
:1008A0007F4F8F4F9F4F089557FD9058440F551F0E
:1008B00059F05F3F71F04795880F97FB991F61F0E2
:1008C0009F3F79F087950895121613061406551F59
:1008D000F2CF4695F1DF08C0161617061806991FC5
:1008E000F1CF86957105610508940895E894BB27BA
:1008F00066277727CB0197F908950E9490040C94FE
:1009000043040E94350438F00E943C0420F09523F3
:1009100011F00C942C040C94320411240C947704E0
:100920000E94540470F3959FC1F3950F50E0551F3A
:10093000629FF001729FBB27F00DB11D639FAA2734
:10094000F00DB11DAA1F649F6627B00DA11D661F83
:10095000829F2227B00DA11D621F739FB00DA11DA4
:10096000621F839FA00D611D221F749F3327A00D5E
:10097000611D231F849F600D211D822F762F6A2FFA
:1009800011249F5750409AF0F1F088234AF0EE0F5F
:10099000FF1FBB1F661F771F881F91505040A9F78C
:1009A0009E3F510580F00C942C040C9477045F3F1B
:1009B000E4F3983ED4F3869577956795B795F795C8
:1009C000E7959F5FC1F7FE2B880F911D9695879540
:0809D00097F90895F894FFCF98
:00000001FF
