:100000000C9434000C943E000C943E000C943E0082
:100010000C943E000C943E000C943E000C943E0068
:100020000C943E000C943E000C943E000C943E0058
:100030000C943E000C943E000C9406020C94FC01BF
:100040000C9410020C943E000C943E000C943E0064
:100050000C943E000C943E000C943E000C943E0028
:100060000C943E000C943E0011241FBECFEFD8E04C
:10007000DEBFCDBF0E941A020C945A040C940000FB
:1000800084B5816084BD84B5826084BD85B5877F79
:1000900085BD84B5806884BD84B58F7B84BD84B5FF
:1000A000806284BD84B58F7E84BDEEE6F0E0808101
:1000B000816080838081826080838081846080838E
:1000C00089E187BD80EC88BD85B5816085BD85B53A
:1000D0008D7F85BD85B58B7F85BD7894089584B56A
:1000E000816084BD84B5826084BD85B5877F85BD10
:1000F00084B5806884BD84B5806484BD84B5806225
:1001000084BD84B5806184BDEEE6F0E080818160CD
:10011000808380818260808380818460808389E1A4
:1001200087BD80EC88BD85B5816085BD85B58D7F37
:1001300085BD85B58B7F85BD7894089584B5816034
:1001400084BD84B5826084BD85B5886085BD84B575
:10015000806284BD84B58F7E84BD80E787BD80E6E4
:1001600088BD85B5816085BD85B58D7F85BD85B52B
:100170008B7F85BD7894089584B5816084BD84B5F6
:10018000826084BD85B5886085BD84B5806284BD8C
:1001900084B5806184BD80E787BD80E688BD85B574
:1001A000816085BD85B58D7F85BD85B58B7F85BD1E
:1001B0007894089584B5816084BD84B5826084BDDF
:1001C00085B5886085BD84B58F7784BD84B580642E
:1001D00084BD80E787BD85B5816085BD85B58D7F90
:1001E00085BD85B58B7F85BD78940895CF92DF92CC
:1001F000EF92FF920F931F9389019A01060F171F29
:10020000281F391FE4B5E160E4BDE4B5E260E4BD58
:10021000E5B5E860E5BDE4B5E062E4BDE4B5EF7ED8
:10022000E4BD043011052105310520F417BC85B566
:100230008E7F18C06801790144E0C41AD108E10832
:10024000F1084DE0C416D104E104F10478F4202F44
:100250002295207F215027BD6295607F615068BD47
:1002600085B5816085BD85B58D7F40C06801790108
:1002700041E1C41AD108E108F10840E7C416D104ED
:10028000E104F10450F4202F220F215027BD660F06
:10029000615068BD85B58E7F26C06801790141E84F
:1002A000C41AD108E108F10840E8C41643E0D406B6
:1002B000E104F104F8F4E2E03695279517950795E7
:1002C000EA95D1F72FEF200F27BDDC01CB01F2E03B
:1002D000B695A79597958795FA95D1F76FEF680F23
:1002E00068BD85B5816085BD85B5826085BD85B5F4
:1002F0008B7F2CC06801790141E0C41A44E0D40A24
:10030000E108F108C1144CE0D406E104F104F8F46A
:1003100044E0000F111F221F331F4A95D1F72FEF22
:10032000210F27BDDC01CB0154E0880F991FAA1FC4
:10033000BB1F5A95D1F78FEF890F88BD85B58E7F8A
:1003400085BD85B58D7F85BD85B5846085BD1F91D3
:100350000F91FF90EF90DF90CF9008958F929F9232
:10036000AF92BF92CF92DF92EF92FF926B017C012E
:10037000CA01B9010E943B039B01AC0160E074E239
:1003800084E799E40E949A024B015C0120E030E08E
:1003900048EC52E4C701B6010E949A02A5019401FB
:1003A0000E94ED036B017C0120E030E040E85FE358
:1003B0000E94950287FF06C0C12CD12C80E8E82E50
:1003C0008FE3F82EA7019601C501B4010E9428020F
:1003D0000E940C034B015C01C701B6010E940C0393
:1003E000A5019401FF90EF90DF90CF90BF90AF9068
:1003F0009F908F900C94F6001F920F920FB60F9261
:1004000011240F900FBE0F901F9018951F920F92FE
:100410000FB60F9211240F900FBE0F901F901895DA
:100420001F920F920FB60F9211240F900FBE0F90D4
:100430001F9018958AB180668AB920E733E040E0C2
:1004400050E068E770E080E090E00E94F600FFCFA7
:100450005058BB27AA270E9440020C94B3030E9465
:10046000A50338F00E94AC0320F039F49F3F19F443
:1004700026F40C94A2030EF4E095E7FB0C949C0385
:10048000E92F0E94C40358F3BA1762077307840761
:10049000950720F079F4A6F50C94E6030EF4E095A8
:1004A0000B2EBA2FA02D0B01B90190010C01CA012E
:1004B000A0011124FF27591B99F0593F50F4503ED9
:1004C00068F11A16F040A22F232F342F4427585FCB
:1004D000F3CF469537952795A795F0405395C9F7E3
:1004E0007EF41F16BA0B620B730B840BBAF091509B
:1004F000A1F0FF0FBB1F661F771F881FC2F70EC03A
:10050000BA0F621F731F841F48F48795779567950C
:10051000B795F7959E3F08F0B0CF9395880F08F0F8
:100520009927EE0F9795879508950E94780308F410
:1005300081E008950E94AE020C94B3030E94AC03C4
:1005400058F00E94A50340F029F45F3F29F00C9475
:100550009C0351110C94E7030C94A2030E94C40362
:1005600068F39923B1F3552391F3951B550BBB27E2
:10057000AA2762177307840738F09F5F5F4F220F27
:10058000331F441FAA1FA9F335D00E2E3AF0E0E81E
:1005900032D091505040E695001CCAF72BD0FE2F68
:1005A00029D0660F771F881FBB1F261737074807FC
:1005B000AB07B0E809F0BB0B802DBF01FF279358B4
:1005C0005F4F3AF09E3F510578F00C949C030C94D9
:1005D000E7035F3FE4F3983ED4F3869577956795FC
:1005E000B795F7959F5FC9F7880F911D96958795E9
:1005F00097F90895E1E0660F771F881FBB1F621708
:1006000073078407BA0720F0621B730B840BBA0BC5
:10061000EE1F88F7E09508950E94CC0388F09F575D
:1006200098F0B92F9927B751B0F0E1F0660F771F16
:10063000881F991F1AF0BA95C9F714C0B13091F00C
:100640000E94E603B1E008950C94E603672F782F2B
:100650008827B85F39F0B93FCCF3869577956795D1
:10066000B395D9F73EF490958095709561957F4F3D
:100670008F4F9F4F0895E89409C097FB3EF49095E3
:100680008095709561957F4F8F4F9F4F9923A9F06B
:10069000F92F96E9BB279395F695879577956795FA
:1006A000B795F111F8CFFAF4BB0F11F460FF1BC03E
:1006B0006F5F7F4F8F4F9F4F16C0882311F096E9D1
:1006C00011C0772321F09EE8872F762F05C066237F
:1006D00071F096E8862F70E060E02AF09A95660F38
:1006E000771F881FDAF7880F9695879597F90895F1
:1006F000990F0008550FAA0BE0E8FEEF1616170633
:10070000E807F907C0F012161306E407F50798F09A
:10071000621B730B840B950B39F40A2661F0232BB3
:10072000242B252B21F408950A2609F4A140A6952F
:100730008FEF811D811D089597F99F6780E870E014
:1007400060E008959FEF80EC089500240A94161647
:10075000170618060906089500240A9412161306AF
:10076000140605060895092E0394000C11F488233D
:1007700052F0BB0F40F4BF2B11F460FF04C06F5F59
:100780007F4F8F4F9F4F089557FD9058440F551F2F
:1007900059F05F3F71F04795880F97FB991F61F003
:1007A0009F3F79F087950895121613061406551F7A
:1007B000F2CF4695F1DF08C0161617061806991FE6
:1007C000F1CF86957105610508940895E894BB27DB
:1007D00066277727CB0197F908950E9400040C94AF
:1007E000B3030E94A50338F00E94AC0320F09523C8
:1007F00011F00C949C030C94A20311240C94E703B5
:100800000E94C40370F3959FC1F3950F50E0551FEC
:10081000629FF001729FBB27F00DB11D639FAA2755
:10082000F00DB11DAA1F649F6627B00DA11D661FA4
:10083000829F2227B00DA11D621F739FB00DA11DC5
:10084000621F839FA00D611D221F749F3327A00D7F
:10085000611D231F849F600D211D822F762F6A2F1B
:1008600011249F5750409AF0F1F088234AF0EE0F80
:10087000FF1FBB1F661F771F881F91505040A9F7AD
:100880009E3F510580F00C949C030C94E7035F3F5E
:10089000E4F3983ED4F3869577956795B795F795E9
:1008A000E7959F5FC1F7FE2B880F911D9695879561
:0808B00097F90895F894FFCFB9
:00000001FF
