:100000000C9434000C9446000C9446000C9446006A
:100010000C9446000C9446000C9446000C94460048
:100020000C9446000C9446000C94ED000C94460091
:100030000C9446000C94E2000C9446000C9446008C
:100040000C9446000C9446000C9446000C94460018
:100050000C9446000C9446000C9446000C94460008
:100060000C9446000C94460011241FBECFEFD8E03C
:10007000DEBFCDBF21E0A0E0B1E001C01D92A23003
:10008000B207E1F70E9412010C941D010C940000CC
:10009000E0E8F0E080818E7F808380818D7F8083A7
:1000A000A1E8B0E08C91877F8C938C918F7E8C93AC
:1000B00080818F77808380818064808380818F7D41
:1000C0008083808180618083EFE6F0E080818160C1
:1000D00080838C9181608C938C918D7F8C938C919B
:1000E0008B7F8C9378940895E0E8F0E080818E7F98
:1000F000808380818D7F8083E1E8F0E08081877F4D
:10010000808380818F7E808380818E7F80838081C9
:10011000826080838081846080830895E0E8F0E0DD
:1001200080818E7F808380818D7F8083E1E8F0E015
:100130008081877F808380818F7E808380818064BF
:100140008083AFE6B0E08C9180628C938081816087
:10015000808380818D7F808380818B7F8083789472
:100160000895809180008E7F809380008091800030
:100170008D7F8093800080918100877F80938100B4
:10018000809181008F7E80938100809180008F77A5
:1001900080938000809180008F7B8093800080918D
:1001A00081008160809381008091810082608093D2
:1001B0008100809181008B7F80938100B09BFECF76
:1001C000B09A08951F920F920FB60F921124319A90
:1001D0000F900FBE0F901F9018951F920F920FB6A1
:1001E0000F9211242F938F939F93B59B13C08091EF
:1001F000860090E090930101809300012091870098
:10020000809100019091010190E0922B9093010167
:10021000809300019F918F912F910F900FBE0F90AF
:100220001F90189584B1866084B9559887B1836012
:0E02300087B940980E948E00FFCFF894FFCF50
:00000001FF
