:100000000C9434000C9449000C9449000C94490061
:100010000C9449000C9449000C9449000C9449003C
:100020000C9449000C9449000C9449000C9449002C
:100030000C9449000C9449000C9449000C9449001C
:100040000C9449000C9449000C9449000C9449000C
:100050000C9449000C9449000C9449000C944900FC
:100060000C9449000C94490011241FBECFEFD8E036
:10007000DEBFCDBF11E0A0E0B1E0EAE9F2E002C0EE
:1000800005900D92AE30B107D9F70E9402010C9491
:100090004B010C940000E2ECF0E080818F7B8083C8
:1000A00080818F77808380818F7E808380818F7D28
:1000B00080838081877F8083A1ECB0E08C918B7FEF
:1000C0008C938081846080838081826080831092A1
:1000D000C50089E68093C4008C9188608C932FEFD3
:1000E00089E698E1215080409040E1F700C000008F
:1000F00008959091C00095FFFCCF8093C6000895AD
:10010000CF93C82F8EEF0E9479008C2FCF910C9443
:10011000790081E00C94800082E00C94800084E0FF
:100120000C94800086E00C94800087E00C948000A2
:1001300085E00C94800088E00C9480008CE00C94A6
:1001400080008EE00C9480008DE00C9480008FE0A5
:100150000C94800080E10C94800084E10C94800079
:1001600088E10C9480008CE10C948000CF93DF93A5
:10017000EC018991882319F00E947900FACFDF9170
:10018000CF910895813011F48FE703C0823021F4BC
:100190008FEB860F0C94800008950F931F93CF93DD
:1001A000DF93EC018C01060F111DC017D10721F060
:1001B00089910E947900F9CFDF91CF911F910F9122
:1001C00008951F93CF93DF93CDB7DEB760970FB637
:1001D000F894DEBF0FBECDBF162F4AE0BE016F5FA1
:1001E0007F4F0E941601612FCE0101960E94CD0023
:1001F00060960FB6F894DEBF0FBECDBFDF91CF91F2
:100200001F9108950E944B0080E091E00E94B6008B
:100210000E94A7002FEF83ED90E321508040904093
:10022000E1F700C000000E94B300FFCFBB274A30B7
:1002300031F4992322F4BDE2909581959F4F0C945F
:100240002201BB27FB015527AA27880F991FAA1F48
:10025000A41710F0A41B83955051B9F7A05DAA33E1
:1002600008F0A95DA193009779F7B111B1931192AC
:10027000CB010C943B01DC01FC01672F71917723CA
:10028000E1F7329704C07C916D9370836291AE1751
:0A029000BF07C8F30895F894FFCFEC
:0E029A00776F726B496E673F2A2A2D2D000088
:00000001FF
