:100000000C9434000C9449000C9449000C94490061
:100010000C9449000C9449000C9449000C9449003C
:100020000C9449000C9449000C9449000C9449002C
:100030000C9449000C9449000C9449000C9449001C
:100040000C9449000C9449000C9449000C9449000C
:100050000C9449000C9449000C9449000C944900FC
:100060000C9449000C94490011241FBECFEFD8E036
:10007000DEBFCDBF11E0A0E0B1E0EAEAF1E002C0EE
:1000800005900D92A231B107D9F70E94B4000C94EB
:10009000D3000C940000E2ECF0E080818F7B808341
:1000A00080818F7780831092C50087E68093C4009B
:1000B000A1ECB0E08C918B7F8C93808184608083F5
:1000C00080818260808380818F7D808380818F7E2C
:1000D00080838081877F80838C918F778C938C91B4
:1000E0008F7B8C938C918F7D8C938C9188608C937B
:1000F0008C9180618C9308959091C00095FFFCCF06
:100100008093C6000895CF93DF93EC0189918823F3
:1001100019F00E947C00FACFDF91CF910895809171
:10012000C00087FFFCCF8091C6000895FF920F9317
:100130001F93CF93DF93EC01F62E0E948F008E0168
:10014000F801EC1BFD0B8F1531F0F80181938F0145
:100150000E948F00F5CFEC0FFD1F1082DF91CF9131
:100160001F910F91FF900895CF93DF93CDB7DEB726
:10017000D4500FB6F894DEBF0FBECDBF0E944B0027
:1001800080E091E00E9483006AE0CE0101960E9427
:1001900096002FEF81EE94E0215080409040E1F7EF
:0A01A00000C00000F1CFF894FFCF7B
:1001AA005468697320697320776F726B696E670A86
:0201BA000D0036
:00000001FF
